S01700004763634170706C69636174696F6E312E737265635B
S11300000C944A010C9467010C9467010C946701E9
S11300100C9467010C9467010C9467010C946701BC
S11300200C9467010C9467010C9467010C946701AC
S11300300C9467010C9467010C94CC050C94670133
S11300400C9467010C9467010C9467010C9467018C
S11300500C9467010C9467010C9467010C9467017C
S11300600C9467010C9467010C9467010C9467016C
S11300700C9467010C9467010C9467010C9467015C
S11300800C9467010C9467010C9467010C9467014C
S11300900C9467010C9467010C9467010C9467013C
S11300A00C9467010C9467010C9467010C9467012C
S11300B00C946701000000000000005F00000007CE
S11300C0000700147F147F14242A7F2A12231308A4
S11300D0646236495522500005030000001C224189
S11300E0000041221C0014083E081408083E0808B9
S11300F00050300000080808080800606000002074
S1130100100804023E5149453E00427F40004261CE
S11301105149462141454B311814127F102745455A
S113012045393C4A49493001710905033649494971
S113013036064949291E00363600000056360000AE
S11301400814224100141414141400412214080247
S113015001510906324979413E7E1111117E7F49D0
S11301604949363E414141227F4141221C7F494950
S113017049417F090909013E4149497A7F08080834
S11301807F00417F41002040413F017F081422410C
S11301907F404040407F020C027F7F0408107F3E76
S11301A04141413E7F090909063E4151215E7F09D3
S11301B0192946464949493101017F01013F40401F
S11301C0403F1F2040201F3F4038403F6314081425
S11301D06307087008076151494543007F414100A6
S11301E002040810200041417F000402010204407F
S11301F040404040000102040020545454787F4899
S11302004444383844444420384444487F3854549F
S11302105418087E0901020C5252523E7F0804040D
S11302207800447D40002040443D007F1028440075
S113023000417F40007C041804787C08040478386A
S1130240444444387C14141408081414187C7C089E
S11302500404084854545420043F4440203C404083
S1130260207C1C2040201C3C4030403C442810286A
S1130270440C5050503C4464544C440008364100F3
S113028000007F0000004136080010080810080034
S11302900000000011241FBECFEFD8E0DEBFCDBFA9
S11302A011E0A0E0B1E0ECEAF2E102C005900D92A9
S11302B0AC37B107D9F723E0ACE7B1E001C01D9238
S11302C0AB37B207E1F70E9410060C9454090C9462
S11302D00000342F36953695369570E054E5359FF9
S11302E0600D711D1124222379F0477021E030E064
S11302F002C0220F331F4A95E2F7FC01E60FF71FF5
S11303008081282B20830895477021E030E002C0CB
S1130310220F331F4A95E2F7FC01E60FF71F2095E1
S11303208081282320830895CF92DF92EF92FF9259
S11303300F931F93CF93DF93EC01C62ED42EE12CA1
S11303400D2D10E0C801880F991F880F991F800F89
S1130350911F2E2D30E0281739070CF04BC0F12CDB
S1130360C801880F991F880F991F880F991F801B38
S1130370910B2F2D30E028173907D4F52C2D30E0C0
S1130380205231098E2D6D2D0E945006F901EE0F79
S1130390FF1FEE0FFF1FE20FF31FE80FF11DEC54D8
S11303A0FF4FE4918F2D0E945006F0E002C0F595B6
S11303B0E7958A95E2F7E0FF0DC0FE01E750FE4F96
S11303C040814F0D319760816E0D21E0CE010E9476
S11303D069010CC0FE01E750FE4F40814F0D31977B
S11303E060816E0D20E0CE010E946901F394B8CFC4
S11303F0E394A6CF8D2D880F880F8D0DFE01E85054
S1130400FE4F9081890F8F5F8083843560F0108266
S113041031968D2D880F880F880F982F9D19808114
S1130420890F8F5F8083FE01E750FE4F8081803308
S113043028F031971082C750DE4F1882DF91CF9198
S11304401F910F91FF90EF90DF90CF900895CF927E
S1130450DF92FF920F931F93CF93DF936C018B0175
S1130460F42EC0E0D0E0F801EC0FFD1F608166239C
S113047031F04F2DC6010E9494012196F4CFDF91F3
S1130480CF911F910F91FF90DF90CF900895FC01C1
S1130490E850FE4F60833196408308958BB18F7E80
S11304A08BB9442329F08BB180628BB980E004C0FE
S11304B08BB18F7D8BB9FACF8830E0F447E050E000
S11304C0481B5109262F30E002C0359527954A95DF
S11304D0E2F720FF04C09BB190649BB903C09BB1B9
S11304E09F7B9BB99BB190689BB99BB19F779BB94C
S11304F08F5FE2CF8BB180618BB9089540E00E9499
S11305004E020895CF93DF93EC0160E80E947E02CF
S113051060E4CE010E947E02FE01E850FE4F10828C
S11305203196108280E090E0883F21E0920734F415
S1130530FE01E80FF91F10820196F6CFDF91CF91EB
S11305400895662311F060E201C064E20E947E0215
S1130550089541E00E944E0208950F931F93CF9394
S1130560DF938C018AB180618AB98AB188608AB9C3
S11305708AB180628AB98AB180648AB98AB1806892
S11305808AB98BB188608BB98BB180618BB983ECEC
S113059099E00197F1F700C000008BB1877F8BB918
S11305A08BE594E40197F1F700C000008BB18860FB
S11305B08BB98BB18F7E8BB961E2C8010E947E0238
S11305C063E1C8010E947E0266E0C8010E947E02C7
S11305D062ECC8010E947E0260E2C8010E947E02B1
S11305E069E0C8010E947E0260E8C8010E947E02A0
S11305F060E4C8010E947E02C0E0D0E0C83F91E000
S1130600D90734F460E0C8010E94A9022196F6CF0C
S113061068E0C8010E947E026CE0C8010E947E026C
S1130620DF91CF911F910F9108950F931F93CF9353
S1130630DF938C0160E80E947E0260E4C8010E949E
S11306407E02C0E0D0E0C83F81E0D8074CF4F80156
S1130650EC0FFD1F6081C8010E94A9022196F3CF0F
S1130660DF91CF911F910F910895CF93DF9300D025
S113067000D0CDB7DEB71A82198289819A81883E6B
S1130680934098F41C821B828B819C81883E93400A
S113069030F48B819C8101969C838B83F5CF898177
S11306A09A8101969A838983E8CF0F900F900F90D7
S11306B00F90DF91CF91089581E891E00E9482022A
S11306C081E891E00E94150348E062E181E891E04D
S11306D00E94470241E060E071E081E891E00E94FD
S11306E0270247E169E181E891E00E94470241E085
S11306F06AE071E081E891E00E94270246E26CE042
S113070081E891E00E94470241E061E171E081E803
S113071091E00E94270281E891E00E941503089568
S113072081E891E00E94820281E891E00E94150331
S113073040E064E181E891E00E94470241E06DE11C
S113074071E081E891E00E9427024AE06AE081E8D2
S113075091E00E94470241E068E271E081E891E0A3
S11307600E94270242E16AE081E891E00E94470288
S113077041E066E371E081E891E00E9427024EE1E6
S113078062E181E891E00E94470241E060E071E0AB
S113079081E891E00E94270248E260E081E891E06C
S11307A00E94470241E064E471E081E891E00E9424
S11307B0270281E891E00E9415030895789482E06D
S11307C084BD9FEF97BD80936E0085E085BD08953D
S11307D081E891E00E94AD0261E081E891E00E942D
S11307E0A10241E063E571E081E891E00E94270203
S11307F081E891E00E9415030895CF93DF93C0E050
S1130800C93290F4D8E0DC0F21E04D2F60E081E89C
S113081091E00E94690121E04D2F63E581E891E0B8
S11308200E946901CF5FECCFC0E0C43580F421E0C1
S113083048E06C2F81E891E00E94690121E04FE2D9
S11308406C2F81E891E00E946901CF5FEECF81E8CF
S113085091E00E941503DF91CF91089540E060E09C
S113086081E891E00E94470241E06DE571E081E892
S113087091E00E94270281E891E00E941503089507
S11308800F931F93CF93DF930BE310E00335110510
S113089088F4C0E0D0E0C830D10548F420E04C2F03
S11308A0602F81E891E00E9469012196F4CF0F5FE7
S11308B01F4FECCF81E891E00E941503DF91CF91A7
S11308C01F910F9108950F931F93CF93DF9300D03F
S11308D000D01F92CDB7DEB78C011F938F938CE6A7
S11308E091E09F938F931F9285E08F93CE010196A1
S11308F09F938F930E945C060E94400440E06BE348
S113090081E891E00E9447020FB6F894DEBF0FBE63
S1130910CDBF0A30110578F441E06FE671E081E85B
S113092091E00E94270241E0BE016F5F7F4F81E8A2
S113093091E00E942702C8010A978A35910578F44C
S113094041E060E771E081E891E00E94270241E024
S1130950BE016F5F7F4F81E891E00E942702C801CA
S1130960845691098438934078F441E061E771E05A
S113097081E891E00E94270241E0BE016F5F7F4F52
S113098081E891E00E942702083E134078F041E09C
S113099063E471E081E891E00E94270241E0BE0136
S11309A06F5F7F4F81E891E00E94270281E891E028
S11309B00E9415030F900F900F900F900F90DF91EE
S11309C0CF911F910F9108950F931F93CF93DF93AE
S11309D040E06AE081E891E00E9447020AE010E00A
S11309E00C33110588F4C0E0D0E0C830D10548F4D8
S11309F020E04C2F602F81E891E00E94690121964C
S1130A00F4CF0F5F1F4FECCF81E891E00E941503F4
S1130A10DF91CF911F910F91089540E06AE081E842
S1130A2091E00E94470241E063E771E081E891E0D0
S1130A300E94270281E891E00E94150310927C0134
S1130A4010927D010895FF920F931F93CF93DF932C
S1130A5000D000D000D0CDB7DEB780917C018F5F8D
S1130A6080937C018C3339F480917D018F5F809376
S1130A707D0110927C0180917D011F928F930CE681
S1130A8011E01F930F931F920F2EF3E0FF2EF02D12
S1130A90FF92CE0101969F938F930E945C068091F2
S1130AA07C011F928F931F930F931F92FF92CE018D
S1130AB004969F938F930E945C060E94E40440E096
S1130AC06AE081E891E00E94470280917D010FB6BF
S1130AD0F894DEBF0FBECDBF8A3080F441E061E7F9
S1130AE071E081E891E00E94270241E0BE016F5F5E
S1130AF07F4F81E891E00E94270208C041E0BE01D7
S1130B006F5F7F4F81E891E00E94270241E069E72F
S1130B1071E081E891E00E94270280917C018A3093
S1130B2080F441E061E771E081E891E00E942702EE
S1130B3041E0BE016C5F7F4F81E891E00E94270293
S1130B4008C041E0BE016C5F7F4F81E891E00E94E4
S1130B50270281E891E00E94150326960FB6F894C7
S1130B60DEBF0FBECDBFDF91CF911F910F91FF90DC
S1130B7008950E94E80381E891E00E9482020E94A5
S1130B80FD030E942E040E94E4040E940D0581E8E6
S1130B9091E00E94150308951F920F920FB60F92D1
S1130BA011242F933F934F935F936F937F938F936E
S1130BB09F93AF93BF93EF93FF9380918001813014
S1130BC0F1F080917E018F5F80937E0180917F019F
S1130BD08F5F80937F01843129F410927F0185B166
S1130BE0809585B980917E018F3349F410927E01FE
S1130BF00E94230580917F0190E00E946304FF918D
S1130C00EF91BF91AF919F918F917F916F915F9180
S1130C104F913F912F910F900FBE0F901F901895F9
S1130C2087E784B98FE385B90E94E8030E945C03D7
S1130C300E9435030E9435030E9435030E94350348
S1130C400E9435030E94350381E891E00E948202EC
S1130C500E94B9050E94DE03109280010E943503B0
S1130C600E9435030E9435030E9435030E94350318
S1130C7081E891E00E94820281E891E00E941503DC
S1130C8081E0809380010E9490030E9435030E94BA
S1130C9035030E9435030E9435030E943503C6CFF5
S1130CA0991B79E004C0991F961708F0961B881FBA
S1130CB07A95C9F780950895AEE0B0E0E2E6F6E0F3
S1130CC00C942B090D891E898F89988D26E02C831D
S1130CD01A83098397FF02C080E090E801979E83FE
S1130CE08D83AE01455E5F4F698D7A8DCE0101968D
S1130CF00E948C064D815E8157FD0AC02F81388584
S1130D00421753070CF49A01F801E20FF31F108203
S1130D102E96E4E00C944709ABE0B0E0E2E9F6E09B
S1130D200C941D096C017B018A01FC011782168257
S1130D30838181FFCCC1CE0101963C01F6019381F0
S1130D40F70193FD859193FF81917F01882309F435
S1130D50BAC1853239F493FD859193FF81917F0166
S1130D60853229F4B60190E00E948308E7CF912CE4
S1130D70212C312CFFE1F315D8F08B3279F038F4C3
S1130D80803279F08332A1F4232D20611DC08D328D
S1130D9061F0803369F4232D216016C0832D8260B5
S1130DA0382EE32DE4603E2E2AC0F32DF8601DC0DA
S1130DB037FC2DC020ED280F2A3040F08E32B9F4D4
S1130DC036FC81C1232D2064322E19C036FE06C0A4
S1130DD08AE0989E200D1124922E11C0EAE02E9EE6
S1130DE0200D1124222EF32DF0623F2E08C08C36E4
S1130DF021F4832D8068382E02C0883641F4F7012F
S1130E0093FD859193FF81917F018111B3CF982F39
S1130E109F7D9554933028F40C5F1F4F9FE3998373
S1130E200DC0833631F0833771F0833509F059C032
S1130E3021C0F801808189830E5F1F4F8824839429
S1130E40912C530113C02801F2E04F0E511CF801FC
S1130E50A080B18036FE03C0692D70E002C06FEF40
S1130E607FEFC5010E9478084C018201F32DFF77C2
S1130E703F2E16C0280122E0420E511CF801A0802A
S1130E80B18036FE03C0692D70E002C06FEF7FEFC2
S1130E90C5010E946D084C01F32DF0683F2E8201BC
S1130EA033FC1BC0822D90E088169906B0F4B6017D
S1130EB080E290E00E9483082A94F4CFF50137FC85
S1130EC0859137FE81915F01B60190E00E9483080D
S1130ED021102A9421E0821A91088114910471F757
S1130EE0E8C0843611F0893641F5F80137FE07C0B1
S1130EF060817181828193810C5F1F4F08C0608182
S1130F007181072E000C880B990B0E5F1F4FF32D78
S1130F10FF763F2E97FF09C0909580957095619557
S1130F207F4F8F4F9F4FF0683F2E2AE030E0A301A0
S1130F300E94BF08882E861845C0853731F4232DBA
S1130F402F7EB22E2AE030E025C0932D997FB92E52
S1130F508F36C1F018F4883579F0B5C0803719F0B0
S1130F60883721F0B0C0E92FE061BE2EB4FE0DC079
S1130F70FB2DF460BF2E09C034FE0AC0292F266061
S1130F80B22E06C028E030E005C020E130E002C007
S1130F9020E132E0F801B7FE07C0608171818281EF
S1130FA093810C5F1F4F06C06081718180E090E0E7
S1130FB00E5F1F4FA3010E94BF08882E8618FB2DC9
S1130FC0FF773F2E36FE0DC0232D2E7FA22E8914CF
S1130FD058F434FE0BC032FC09C0832D8E7EA82E3B
S1130FE005C0B82CA32C03C0B82C01C0B92CA4FE96
S1130FF00FC0FE01E80DF11D8081803321F49A2D8C
S1131000997EA92E09C0A2FE06C0B394B39404C06D
S11310108A2D867809F0B394A3FC11C0A0FE06C003
S1131020B21488F4280C922C9B180EC0B21460F4ED
S1131030B60180E290E00E948308B394F7CFB21423
S113104018F42B1802C0982C212CA4FE10C0B60151
S113105080E390E00E948308A2FE17C0A1FC03C0B5
S113106088E790E002C088E590E0B6010CC08A2DC4
S1131070867859F0A1FE02C08BE201C080E2A7FC91
S11310808DE2B60190E00E948308891438F4B60119
S113109080E390E00E9483089A94F7CF8A94F30146
S11310A0E80DF11D8081B60190E00E948308811053
S11310B0F5CF222009F442CEB60180E290E00E94EE
S11310C083082A94F6CFF6018681978102C08FEFB8
S11310D09FEF2B96E2E10C943909FC0105906150D5
S11310E070400110D8F7809590958E0F9F1F08953A
S11310F0FC016150704001900110D8F780959095E3
S11311008E0F9F1F08950F931F93CF93DF93FB01BF
S1131110238121FD03C08FEF9FEF2CC022FF16C057
S113112046815781248135814217530744F4A081B5
S1131130B1819D012F5F3F4F318320838C932681A2
S113114037812F5F3F4F3783268314C08B01EC0117
S1131150FB010084F185E02D0995892BE1F6D80186
S113116016968D919C911797019617969C938E9342
S11311701697CE01DF91CF911F910F910895FA0137
S1131180AA27283051F1203181F1E8946F936E7FC2
S11311906E5F7F4F8F4F9F4FAF4FB1E03ED0B4E0B3
S11311A03CD0670F781F891F9A1FA11D680F791FF4
S11311B08A1F911DA11D6A0F711D811D911DA11D05
S11311C020D009F468943F912AE0269F1124301915
S11311D0305D3193DEF6CF010895462F4770405DB0
S11311E04193B3E00FD0C9F7F6CF462F4F70405D5F
S11311F04A3318F0495D31FD4052419302D0A9F7BA
S1131200EACFB4E0A6959795879577956795BA95B3
S1131210C9F700976105710508959B01AC010A2E79
S113122006945795479537952795BA95C9F7620F50
S1131230731F841F951FA01D08952F923F924F92F4
S11312405F926F927F928F929F92AF92BF92CF9252
S1131250DF92EF92FF920F931F93CF93DF93CDB75B
S1131260DEB7CA1BDB0B0FB6F894DEBF0FBECDBFD3
S113127009942A88398848885F846E847D848C84A4
S11312809B84AA84B984C884DF80EE80FD800C81AD
S11312901B81AA81B981CE0FD11D0FB6F894DEBF90
S10F12A00FBECDBFED010895F894FFCF00
S11312AC507265737320616E7900627574746F6E1D
S11312BC00746F207374617274203A440047616D3A
S11312CC65206F766572200073636F726520202031
S11312DC58585858200074696D6520202058583A85
S11312EC58582000627574746F6E20746F20657882
S11312FC6974005354415254494E472100542058A8
S113130C583A585820202058585858002575003001
S10F131C30300030303A3030003A00002D
S9030000FC
