:100000000C944A010C9467010C9467010C946701ED
:100010000C9467010C9467010C9467010C946701C0
:100020000C9467010C9467010C9467010C946701B0
:100030000C9467010C9467010C94BE080C94670142
:100040000C9467010C9467010C9467010C94670190
:100050000C9467010C9467010C9467010C94670180
:100060000C9467010C9467010C9467010C94670170
:100070000C9467010C9467010C9467010C94670160
:100080000C9467010C9467010C9467010C94670150
:100090000C9467010C9467010C9467010C94670140
:1000A0000C9467010C9467010C9467010C94670130
:1000B0000C946701000000000000005F00000007D2
:1000C000000700147F147F14242A7F2A12231308A8
:1000D000646236495522500005030000001C22418D
:1000E000000041221C0014083E081408083E0808BD
:1000F0000050300000080808080800606000002078
:10010000100804023E5149453E00427F40004261D2
:100110005149462141454B311814127F102745455E
:1001200045393C4A49493001710905033649494975
:1001300036064949291E00363600000056360000B2
:10014000081422410014141414140041221408024B
:1001500001510906324979413E7E1111117E7F49D4
:100160004949363E414141227F4141221C7F494954
:1001700049417F090909013E4149497A7F08080838
:100180007F00417F41002040413F017F0814224110
:100190007F404040407F020C027F7F0408107F3E7A
:1001A0004141413E7F090909063E4151215E7F09D7
:1001B000192946464949493101017F01013F404023
:1001C000403F1F2040201F3F4038403F6314081429
:1001D0006307087008076151494543007F414100AA
:1001E00002040810200041417F0004020102044083
:1001F00040404040000102040020545454787F489D
:100200004444383844444420384444487F385454A3
:100210005418087E0901020C5252523E7F08040411
:100220007800447D40002040443D007F1028440079
:1002300000417F40007C041804787C08040478386E
:10024000444444387C14141408081414187C7C08A2
:100250000404084854545420043F4440203C404087
:10026000207C1C2040201C3C4030403C442810286E
:10027000440C5050503C4464544C440008364100F7
:1002800000007F0000004136080010080810080038
:100290000000000011241FBECFEFD8E0DEBFCDBFAD
:1002A00011E0A0E0B1E0ECEEFBE102C005900D92A0
:1002B000A637B107D9F728E0A6E7B1E001C01D9243
:1002C000A533B207E1F70E9405090C94F40D0C94D4
:1002D0000000342F36953695369570E054E5359FFD
:1002E000600D711D1124222379F0477021E030E068
:1002F00002C0220F331F4A95E2F7FC01E60FF71FF9
:100300008081282B20830895477021E030E002C0CF
:10031000220F331F4A95E2F7FC01E60FF71F2095E5
:100320008081282320830895CF92DF92EF92FF925D
:100330000F931F93CF93DF93EC01C62ED42EE12CA5
:100340000D2D10E0C801880F991F880F991F800F8D
:10035000911F2E2D30E0281739070CF04BC0F12CDF
:10036000C801880F991F880F991F880F991F801B3C
:10037000910B2F2D30E028173907D4F52C2D30E0C4
:10038000205231098E2D6D2D0E94090AF901EE0FC0
:10039000FF1FEE0FFF1FE20FF31FE80FF11DEC54DC
:1003A000FF4FE4918F2D0E94090AF0E002C0F595FD
:1003B000E7958A95E2F7E0FF0DC0FE01E750FE4F9A
:1003C00040814F0D319760816E0D21E0CE010E947A
:1003D00069010CC0FE01E750FE4F40814F0D31977F
:1003E00060816E0D20E0CE010E946901F394B8CFC8
:1003F000E394A6CF8D2D880F880F8D0DFE01E85058
:10040000FE4F9081890F8F5F8083843560F010826A
:1004100031968D2D880F880F880F982F9D19808118
:10042000890F8F5F8083FE01E750FE4F808180330C
:1004300028F031971082C750DE4F1882DF91CF919C
:100440001F910F91FF90EF90DF90CF900895CF9282
:10045000DF92FF920F931F93CF93DF936C018B0179
:10046000F42EC0E0D0E0F801EC0FFD1F60816623A0
:1004700031F04F2DC6010E9494012196F4CFDF91F7
:10048000CF911F910F91FF90DF90CF900895FC01C5
:10049000E850FE4F60833196408308958BB18F7E84
:1004A0008BB9442329F08BB180628BB980E004C002
:1004B0008BB18F7D8BB9FACF8830E0F447E050E004
:1004C000481B5109262F30E002C0359527954A95E3
:1004D000E2F720FF04C09BB190649BB903C09BB1BD
:1004E0009F7B9BB99BB190689BB99BB19F779BB950
:1004F0008F5FE2CF8BB180618BB9089540E00E949D
:100500004E020895CF93DF93EC0160E80E947E02D3
:1005100060E4CE010E947E02FE01E850FE4F108290
:100520003196108280E090E0883F21E0920734F419
:10053000FE01E80FF91F10820196F6CFDF91CF91EF
:100540000895662311F060E201C064E20E947E0219
:10055000089541E00E944E0208950F931F93CF9398
:10056000DF938C018AB180618AB98AB188608AB9C7
:100570008AB180628AB98AB180648AB98AB1806896
:100580008AB98BB188608BB98BB180618BB98FE1EF
:100590009EE40197F1F700C000008BB1877F8BB913
:1005A0009FE725EB81E0915020408040E1F700C0BB
:1005B00000008BB188608BB98BB18F7E8BB961E203
:1005C000C8010E947E0263E1C8010E947E0266E0CB
:1005D000C8010E947E0262ECC8010E947E0260E2B5
:1005E000C8010E947E0269E0C8010E947E0260E8A4
:1005F000C8010E947E0260E4C8010E947E02C0E041
:10060000D0E0C83F91E0D90734F460E0C8010E940F
:10061000A9022196F6CF68E0C8010E947E026CE034
:10062000C8010E947E02DF91CF911F910F91089522
:100630000F931F93CF93DF938C0160E80E947E029B
:1006400060E4C8010E947E02C0E0D0E0C83F81E0C3
:10065000D8074CF4F801EC0FFD1F6081C8010E941F
:10066000A9022196F3CFDF91CF911F910F910895A9
:10067000CF93DF9300D000D0CDB7DEB71A821982B6
:1006800089819A81883E934098F41C821B828B81D9
:100690009C81883E934030F48B819C8101969C83A1
:1006A0008B83F5CF89819A8101969A838983E8CFDC
:1006B0000F900F900F900F90DF91CF9108958BE3E3
:1006C00096E00E9482028BE396E00E94180348E0C5
:1006D00062E18BE396E00E94470241E065E071E051
:1006E0008BE396E00E94270247E169E18BE396E005
:1006F0000E94470241E06FE071E08BE396E00E94C8
:10070000270246E26CE08BE396E00E94470241E05C
:1007100066E171E08BE396E00E9427028BE396E0AE
:100720000E9418030895CF92DF92FF920F931F93B8
:10073000CF93DF93CDB7DEB72F970FB6F894DEBF18
:100740000FBECDBF809179018F93809178018F93F7
:1007500002E211E01F930F931F920F2EF5E0FF2E80
:10076000F02DFF929E012F5F3F4F69013F932F9322
:100770000E94990A80912B061F928F931F930F93CB
:100780001F92FF92CE0106969F938F930E94990A23
:1007900080912A061F928F931F930F931F92FF92AF
:1007A000CE010B969F938F930E94990A8BE396E05C
:1007B0000E9482028BE396E00E94180340E064E10D
:1007C0008BE396E00E94470241E065E271E08BE333
:1007D00096E00E9427024AE06AE08BE396E00E94DE
:1007E000470241E060E371E08BE396E00E9427025C
:1007F00041E0B6018BE396E00E94270242E16AE005
:100800008BE396E00E94470241E069E371E08BE3ED
:1008100096E00E94270280912A060FB6F894DEBF68
:100820000FBECDBF8A3080F441E06DE671E08BE30E
:1008300096E00E94270241E0BE01655F7F4F8BE397
:1008400096E00E94270208C041E0BE01655F7F4F2D
:100850008BE396E00E94270241E061E471E08BE3C4
:1008600096E00E94270280912B068A3080F441E0B6
:100870006DE671E08BE396E00E94270241E0BE0145
:100880006A5F7F4F8BE396E00E94270208C041E039
:10089000BE016A5F7F4F8BE396E00E9427024EE124
:1008A00062E18BE396E00E94470241E065E071E07F
:1008B0008BE396E00E94270248E260E08BE396E03B
:1008C0000E94470241E063E471E08BE396E00E94FE
:1008D00027028BE396E00E9418032F960FB6F89438
:1008E000DEBF0FBECDBFDF91CF911F910F91FF9063
:1008F000DF90CF90089583B18B3851F018F487388A
:1009000049F00AC08D3859F08E3831F484E608C0B9
:1009100083E706C087E704C08091040101C081E637
:10092000809304010895789482E084BD9FEF97BD81
:1009300080936E0085E085BD08958BE396E00E946C
:10094000AD0261E08BE396E00E94A10241E062E526
:1009500071E08BE396E00E9427028BE396E00E9411
:1009600018030895CF93DF93C1E0C73290F4D7E026
:10097000DC0F21E04D2F60E08BE396E00E946901DF
:1009800021E04D2F63E58BE396E00E946901CF5F84
:10099000ECCFC0E0C53580F421E048E06C2F8BE35C
:1009A00096E00E94690121E04DE26C2F8BE396E016
:1009B0000E946901CF5FEECF8BE396E00E9418039F
:1009C000DF91CF91089540E060E08BE396E00E94D4
:1009D000470241E06CE571E08BE396E00E9427025C
:1009E0008BE396E00E94180308950F931F93CF9313
:1009F000DF930BE310E00335110588F4C0E0D0E08D
:100A0000C830D10548F420E04C2F602F8BE396E0EE
:100A10000E9469012196F4CF0F5F1F4FECCF8BE34B
:100A200096E00E941803DF91CF911F910F910895D6
:100A30000F931F93CF93DF9300D000D01F92CDB7B9
:100A4000DEB78C011F938F9382E291E09F938F9387
:100A50001F9285E08F93CE0101969F938F930E9402
:100A6000990A0E94F50440E06BE38BE396E00E9454
:100A700047020FB6F894DEBF0FBECDBF0A30110596
:100A800078F441E06BE671E08BE396E00E94270288
:100A900041E0BE016F5F7F4F8BE396E00E9427022B
:100AA000C8010A978A35910578F441E06CE671E057
:100AB0008BE396E00E94270241E0BE016F5F7F4F0B
:100AC0008BE396E00E942702C8018456910984387E
:100AD000934078F441E06DE671E08BE396E00E948C
:100AE000270241E0BE016F5F7F4F8BE396E00E94DB
:100AF0002702083E134078F041E060E471E08BE3A8
:100B000096E00E94270241E0BE016F5F7F4F8BE3BA
:100B100096E00E9427028BE396E00E9418030F9054
:100B20000F900F900F900F90DF91CF911F910F9129
:100B300008950F931F93CF93DF9340E06AE08BE318
:100B400096E00E9447020AE010E00C33110588F499
:100B5000C0E0D0E0C830D10548F420E04C2F602F31
:100B60008BE396E00E9469012196F4CF0F5F1F4F3F
:100B7000ECCF8BE396E00E941803DF91CF911F9199
:100B80000F9108950F931F93CF93DF9301E010E02F
:100B90000335110588F4C9E0D0E0CD32D10548F421
:100BA00020E04C2F602F8BE396E00E946901219694
:100BB000F4CF0F5F1F4FECCF8BE396E00E9418033A
:100BC000DF91CF911F910F91089540E06AE08BE390
:100BD00096E00E94470241E06FE671E08BE396E009
:100BE0000E9427028BE396E00E94180310923606BB
:100BF000109237060895FF920F931F93CF93DF93C0
:100C000000D000D000D0CDB7DEB7809136068F5F20
:100C1000809336068C3339F4809137068F5F80934A
:100C2000370610923606809137061F928F9302E2A4
:100C300011E01F930F931F920F2EF3E0FF2EF02D64
:100C4000FF92CE0101969F938F930E94990A809103
:100C500036061F928F931F930F931F92FF92CE0120
:100C600004969F938F930E94990A0E94990540E0F1
:100C70006AE08BE396E00E944702809137060FB648
:100C8000F894DEBF0FBECDBF8A3080F441E06DE640
:100C900071E08BE396E00E94270241E0BE016F5FA6
:100CA0007F4F8BE396E00E94270208C041E0BE011F
:100CB0006F5F7F4F8BE396E00E94270241E061E483
:100CC00071E08BE396E00E942702809136068A301D
:100CD00080F441E06DE671E08BE396E00E9427022C
:100CE00041E0BE016C5F7F4F8BE396E00E942702DC
:100CF00008C041E0BE016C5F7F4F8BE396E00E942D
:100D000027028BE396E00E94180326960FB6F8940C
:100D1000DEBF0FBECDBFDF91CF911F910F91FF902E
:100D200008950E949D048BE396E00E9482020E9437
:100D3000B2040E94E3040E9499050E94E5058BE33A
:100D400096E00E9418030895CF92DF92EF92FF92EF
:100D50000F931F93CF93DF937C01A2EDB3E08C91AF
:100D600011967C911197EAE7F1E060819181009101
:100D70003406109135060D931C93C0913206D09124
:100D80003306D183C08321E030E040912C0650919E
:100D90002D0624173507D4F4F901EE0FFF1FDF01EC
:100DA000AE52BC4F5C9111964C911197E658FE4F94
:100DB000C080D1808C9311967C93608391832F5F48
:100DC0003F4F6C2D9D2D852F742FDFCFF701808134
:100DD000843681F018F4813631F01EC08337B9F0C3
:100DE000873779F019C00150110910933506009327
:100DF000340612C00F5F1F4F109335060093340660
:100E00000BC02197D0933306C093320605C02196BC
:100E1000D0933306C0933206609134067091350644
:100E20006B31710548F480913206909133068C3015
:100E3000910514F4992374F481E090E09093770184
:100E4000809376018091370680932A06809136063A
:100E500080932B0680E090E0841795074CF5FC0109
:100E6000EE0FFF1FEE52FC4F208131816217730796
:100E7000E9F4FC01EE0FFF1FE658FE4F0190F081F0
:100E8000E02D2091320630913306E217F30771F41A
:100E900021E030E0309377012093760120913706EE
:100EA00020932A062091360620932B060196D4CF54
:100EB00080913006909131066817790709F059C082
:100EC000209132063091330680912E0690912F06A4
:100ED0002817390709F04DC0809178019091790168
:100EE0000A9690937901809378010E94890A6BE1B8
:100EF00070E00E94150A90933106809330060E949C
:100F0000890A6CE070E00E94150AA82FB92F80931F
:100F10002E0690932F0680E090E020912C063091D1
:100F20002D0682179307D4F4FC01EE0FFF1FEE523B
:100F3000FC4F6081718140913006509131066417F9
:100F4000750751F4FC01EE0FFF1FE658FE4F40817C
:100F50005181A417B50721F00196DFCF81E001C0D0
:100F600080E0882311F22F5F3F4F30932D062093AE
:100F70002C06DF91CF911F910F91FF90EF90DF90A2
:100F8000CF900895EF92FF920F931F93CF93DF932B
:100F90000E94C20580913406909135068C01000FA5
:100FA000111F800F911F8C010F5F1F4F809134061E
:100FB000909135069C01220F331F820F931F0496D8
:100FC0000817190724F58091320690913306EC0139
:100FD000CC0FDD1F8C0F9D1FEC01299680913206EE
:100FE000909133069C01220F331F820F931F0C96A2
:100FF000C817D9074CF421E04C2F602F8BE396E003
:101000000E9469012196EACF0F5F1F4FCFCF8091D9
:101010003006909131068C01000F111F800F911F37
:101020008C010F5F1F4F80913006909131069C011B
:10103000220F331F820F931F049608171907F4F528
:1010400080912E0690912F06EC01CC0FDD1F8C0FA6
:101050009D1FEC01299680912E0690912F069C01F0
:10106000220F331F820F931F0C96C817D9071CF548
:10107000C80181709078992324F401978E6F9F6F37
:101080000196019759F4CE0181709078992324F448
:1010900001978E6F9F6F0196019721F000FD09C0A7
:1010A000C0FD07C021E04C2F602F8BE396E00E942B
:1010B00069012196D0CF0F5F1F4FB5CFE12CF12CE6
:1010C00080912C0690912D06E816F9060CF04BC085
:1010D000F701EE0FFF1FEE52FC4F808191818C01D2
:1010E000000F111F080F191F0F5F1F4FF701EE0FA1
:1010F000FF1FEE52FC4F808191819C01220F331F14
:10110000820F931F0496081719074CF5F701EE0F8D
:10111000FF1FE658FE4FC081D181CE01880F991F75
:10112000C80FD91F2996F701EE0FFF1FE658FE4F93
:10113000808191819C01220F331F820F931F0C9697
:10114000C817D9074CF421E04C2F602F8BE396E0B1
:101150000E9469012196E7CF0F5F1F4FC7CF8FEF26
:10116000E81AF80AADCF8BE396E00E941803DF91EE
:10117000CF911F910F91FF90EF9008951F920F92C2
:101180000FB60F9211242F933F934F935F936F935A
:101190007F938F939F93AF93BF93EF93FF93809130
:1011A0003A06813009F1809138068F5F80933806C6
:1011B000809139068F5F80933906843129F410922B
:1011C000390685B1809585B9809138068F3361F4F1
:1011D000109238060E94FB05809178019091790168
:1011E0000E9418050E94C207FF91EF91BF91AF9135
:1011F0009F918F917F916F915F914F913F912F912F
:101200000F900FBE0F901F901895CF93DF931F92F2
:10121000CDB7DEB780E384B98FE083B90E949D0427
:101220008EE6898389E598E00E948E0A00E010E04E
:101230000E945F030E9438038EE689838093040135
:101240000E947B0489838E3609F446C00E94890A75
:101250006BE170E00E94150A909335068093340686
:101260000E94890A6CE070E00E94150A9093330690
:10127000809332060E94890A6BE170E00E94150A91
:1012800090933106809330060E94890A6CE070E0EA
:101290000E94150A282F392F80932E0690932F062F
:1012A0004091300650913106809134069091350678
:1012B0004817590739F48091320690913306281760
:1012C0003907C1F210922D0610922C061092790166
:1012D0001092780101E010E00130110509F0A8CF6B
:1012E0008BE396E00E9482020E9491060E94930482
:1012F00010923A060E947B048983CE0101960E94D7
:10130000A4060E943803809176019091770101979D
:1013100079F78BE396E00E9482028BE396E00E94CD
:10132000180381E080933A061092770110927601BB
:10133000E12CF12C0E9493030E9438038EE68983EE
:10134000809304010E947B0489838E3609F445C092
:101350000E94890A6BE170E00E94150A909335069D
:10136000809334060E94890A6CE070E00E94150A9E
:1013700090933306809332060E94890A6BE170E0F5
:101380000E94150A90933106809330060E94890AC4
:101390006CE070E00E94150A282F392F80932E06EA
:1013A00090932F064091300650913106809134067B
:1013B000909135064817590739F48091320690917B
:1013C000330628173907C1F210922D0610922C0609
:1013D0001092790110927801780181E0E816F10409
:1013E00009F0A8CF8BE396E00E9482028BE396E09F
:1013F0000E9418030E94B2040E94E3040E9499050F
:101400000E94E5058BE396E00E9418030E943803D2
:101410006FCF991B79E004C0991F961708F0961BAF
:10142000881F7A95C9F78095089597FB072E16F4C3
:10143000009407D077FD09D00E94290A07FC05D047
:101440003EF4909581959F4F0895709561957F4FDB
:101450000895AA1BBB1B51E107C0AA1FBB1FA617FB
:10146000B70710F0A61BB70B881F991F5A95A9F74D
:1014700080959095BC01CD0108958F929F92AF9277
:10148000BF92CF92DF92EF92FF92CF93DF93EC0166
:10149000688179818A819B8161157105810591053A
:1014A00021F464E279ED8BE597E02DE133EF41E043
:1014B00050E00E945A0D49015A019B01AC01A7EA74
:1014C000B1E40E94790D6B017C01ACEEB4EFA50193
:1014D00094010E94870DDC01CB018C0D9D1DAE1D7A
:1014E000BF1DB7FF03C00197A109B0488883998346
:1014F000AA83BB839F77DF91CF91FF90EF90DF901E
:10150000CF90BF90AF909F908F9008950E943D0A1A
:10151000089580E091E00E943D0A0895A0E0B0E0C7
:101520008093000190930101A0930201B093030105
:101530000895AEE0B0E0EFE9FAE00C949A0D0D8961
:101540001E898F89988D26E02C831A83098397FF43
:1015500002C080E090E801979E838D83AE01455ED6
:101560005F4F698D7A8DCE0101960E94C90A4D8127
:101570005E8157FD0AC02F813885421753070CF44E
:101580009A01F801E20FF31F10822E96E4E00C940A
:10159000B60DABE0B0E0EFECFAE00C948C0D6C0112
:1015A0007B018A01FC0117821682838181FFCCC1F5
:1015B000CE0101963C01F6019381F70193FD8591DF
:1015C00093FF81917F01882309F4BAC1853239F4F0
:1015D00093FD859193FF81917F01853229F4B601B6
:1015E00090E00E94C00CE7CF912C212C312CFFE120
:1015F000F315D8F08B3279F038F4803279F08332F9
:10160000A1F4232D20611DC08D3261F0803369F477
:10161000232D216016C0832D8260382EE32DE460D7
:101620003E2E2AC0F32DF8601DC037FC2DC020EDE2
:10163000280F2A3040F08E32B9F436FC81C1232DB8
:101640002064322E19C036FE06C08AE0989E200D16
:101650001124922E11C0EAE02E9E200D1124222E7C
:10166000F32DF0623F2E08C08C3621F4832D806864
:10167000382E02C0883641F4F70193FD859193FF1F
:1016800081917F018111B3CF982F9F7D9554933025
:1016900028F40C5F1F4F9FE399830DC0833631F010
:1016A000833771F0833509F059C021C0F80180817A
:1016B00089830E5F1F4F88248394912C530113C09C
:1016C0002801F2E04F0E511CF801A080B18036FED7
:1016D00003C0692D70E002C06FEF7FEFC5010E946B
:1016E000B50C4C018201F32DFF773F2E16C0280167
:1016F00022E0420E511CF801A080B18036FE03C0EA
:10170000692D70E002C06FEF7FEFC5010E94AA0C47
:101710004C01F32DF0683F2E820133FC1BC0822D5B
:1017200090E088169906B0F4B60180E290E00E943D
:10173000C00C2A94F4CFF50137FC859137FE8191D6
:101740005F01B60190E00E94C00C21102A9421E0B4
:10175000821A91088114910471F7E8C0843611F05F
:10176000893641F5F80137FE07C0608171818281B9
:1017700093810C5F1F4F08C060817181072E000CA0
:10178000880B990B0E5F1F4FF32DFF763F2E97FFAF
:1017900009C090958095709561957F4F8F4F9F4FB1
:1017A000F0683F2E2AE030E0A3010E94FC0C882E56
:1017B000861845C0853731F4232D2F7EB22E2AE0BE
:1017C00030E025C0932D997FB92E8F36C1F018F4E3
:1017D000883579F0B5C0803719F0883721F0B0C06E
:1017E000E92FE061BE2EB4FE0DC0FB2DF460BF2ECC
:1017F00009C034FE0AC0292F2660B22E06C028E098
:1018000030E005C020E130E002C020E132E0F80124
:10181000B7FE07C060817181828193810C5F1F4F89
:1018200006C06081718180E090E00E5F1F4FA301D0
:101830000E94FC0C882E8618FB2DFF773F2E36FE6B
:101840000DC0232D2E7FA22E891458F434FE0BC018
:1018500032FC09C0832D8E7EA82E05C0B82CA32C87
:1018600003C0B82C01C0B92CA4FE0FC0FE01E80DC6
:10187000F11D8081803321F49A2D997EA92E09C013
:10188000A2FE06C0B394B39404C08A2D867809F0F2
:10189000B394A3FC11C0A0FE06C0B21488F4280CB7
:1018A000922C9B180EC0B21460F4B60180E290E056
:1018B0000E94C00CB394F7CFB21418F42B1802C0D6
:1018C000982C212CA4FE10C0B60180E390E00E9469
:1018D000C00CA2FE17C0A1FC03C088E790E002C0C4
:1018E00088E590E0B6010CC08A2D867859F0A1FEFB
:1018F00002C08BE201C080E2A7FC8DE2B60190E05D
:101900000E94C00C891438F4B60180E390E00E9474
:10191000C00C9A94F7CF8A94F301E80DF11D8081F1
:10192000B60190E00E94C00C8110F5CF222009F48E
:1019300042CEB60180E290E00E94C00C2A94F6CF1D
:10194000F6018681978102C08FEF9FEF2B96E2E12F
:101950000C94A80DFC010590615070400110D8F75F
:10196000809590958E0F9F1F0895FC0161507040E7
:1019700001900110D8F7809590958E0F9F1F0895C4
:101980000F931F93CF93DF93FB01238121FD03C0AE
:101990008FEF9FEF2CC022FF16C046815781248114
:1019A00035814217530744F4A081B1819D012F5F17
:1019B0003F4F318320838C93268137812F5F3F4FA8
:1019C0003783268314C08B01EC01FB010084F18571
:1019D000E02D0995892BE1F6D80116968D919C9101
:1019E0001797019617969C938E931697CE01DF91C9
:1019F000CF911F910F910895FA01AA27283051F134
:101A0000203181F1E8946F936E7F6E5F7F4F8F4F2F
:101A10009F4FAF4FB1E03ED0B4E03CD0670F781F8E
:101A2000891F9A1FA11D680F791F8A1F911DA11D73
:101A30006A0F711D811D911DA11D20D009F46894AC
:101A40003F912AE0269F11243019305D3193DEF654
:101A5000CF010895462F4770405D4193B3E00FD00A
:101A6000C9F7F6CF462F4F70405D4A3318F0495DF5
:101A700031FD4052419302D0A9F7EACFB4E0A695D8
:101A80009795879577956795BA95C9F700976105FA
:101A9000710508959B01AC010A2E06945795479550
:101AA00037952795BA95C9F7620F731F841F951F45
:101AB000A01D0895052E97FB1EF400940E94710D41
:101AC00057FD07D00E94C30D07FC03D04EF40C94C1
:101AD000710D50954095309521953F4F4F4F5F4F79
:101AE000089590958095709561957F4F8F4F9F4F8A
:101AF00008950E94E50DA59F900DB49F900DA49FA1
:101B0000800D911D11240895B7FF0C94790D0E944A
:101B1000790D821B930B08952F923F924F925F9203
:101B20006F927F928F929F92AF92BF92CF92DF92ED
:101B3000EF92FF920F931F93CF93DF93CDB7DEB752
:101B4000CA1BDB0B0FB6F894DEBF0FBECDBF0994E6
:101B50002A88398848885F846E847D848C849B843D
:101B6000AA84B984C884DF80EE80FD800C811B814B
:101B7000AA81B981CE0FD11D0FB6F894DEBF0FBE7A
:101B8000CDBFED010895A1E21A2EAA1BBB1BFD01DA
:101B90000DC0AA1FBB1FEE1FFF1FA217B307E4074C
:101BA000F50720F0A21BB30BE40BF50B661F771FA4
:101BB000881F991F1A9469F7609570958095909584
:101BC0009B01AC01BD01CF010895A29FB001B39F5D
:101BD000C001A39F700D811D1124911DB29F700D36
:0C1BE000811D1124911D0895F894FFCF81
:101BEC00010000006E507265737320616E790062A3
:101BFC007574746F6E00746F207374617274203A14
:101C0C00440025750047616D65206F766572200074
:101C1C0073636F72652020200074696D652020202D
:101C2C00003A00627574746F6E20746F2065786969
:101C3C0074005354415254494E4721005420585873
:101C4C003A5858202020585858580030303000301E
:061C5C00303A30300000B8
:00000001FF
